{
  "contractName": "Poll",
  "abi": [
    {
      "inputs": [],
      "payable": false,
      "stateMutability": "nonpayable",
      "type": "constructor"
    },
    {
      "anonymous": false,
      "inputs": [
        {
          "indexed": false,
          "internalType": "string",
          "name": "idea",
          "type": "string"
        },
        {
          "indexed": false,
          "internalType": "uint256",
          "name": "votes",
          "type": "uint256"
        }
      ],
      "name": "votecount",
      "type": "event"
    },
    {
      "anonymous": false,
      "inputs": [
        {
          "indexed": false,
          "internalType": "string",
          "name": "idea",
          "type": "string"
        },
        {
          "indexed": false,
          "internalType": "uint256",
          "name": "votes",
          "type": "uint256"
        }
      ],
      "name": "voted",
      "type": "event"
    },
    {
      "constant": false,
      "inputs": [
        {
          "internalType": "string",
          "name": "idea",
          "type": "string"
        }
      ],
      "name": "giveVote",
      "outputs": [],
      "payable": false,
      "stateMutability": "nonpayable",
      "type": "function"
    },
    {
      "constant": false,
      "inputs": [
        {
          "internalType": "string",
          "name": "idea",
          "type": "string"
        }
      ],
      "name": "voteCount",
      "outputs": [],
      "payable": false,
      "stateMutability": "nonpayable",
      "type": "function"
    }
  ],
  "bytecode": "0x608060405234801561001057600080fd5b506000808190555033600260006101000a81548173ffffffffffffffffffffffffffffffffffffffff021916908373ffffffffffffffffffffffffffffffffffffffff16021790555061054a806100686000396000f3fe608060405234801561001057600080fd5b50600436106100365760003560e01c806395c2dbcd1461003b578063ba7f7552146100f6575b600080fd5b6100f46004803603602081101561005157600080fd5b810190808035906020019064010000000081111561006e57600080fd5b82018360208201111561008057600080fd5b803590602001918460018302840111640100000000831117156100a257600080fd5b91908080601f016020809104026020016040519081016040528093929190818152602001838380828437600081840152601f19601f8201169050808301925050505050505091929192905050506101b1565b005b6101af6004803603602081101561010c57600080fd5b810190808035906020019064010000000081111561012957600080fd5b82018360208201111561013b57600080fd5b8035906020019184600183028401116401000000008311171561015d57600080fd5b91908080601f016020809104026020016040519081016040528093929190818152602001838380828437600081840152601f19601f820116905080830192505050505050509192919290505050610338565b005b600180826040518082805190602001908083835b602083106101e857805182526020820191506020810190506020830392506101c5565b6001836020036101000a0380198251168184511680821785525050505050509050019150509081526020016040518091039020600082825401925050819055507f8510045a893383004baaf9338490b39e4a1e03b6746b9df4692666ff3d022a88816001836040518082805190602001908083835b60208310610280578051825260208201915060208101905060208303925061025d565b6001836020036101000a0380198251168184511680821785525050505050509050019150509081526020016040518091039020546040518080602001838152602001828103825284818151815260200191508051906020019080838360005b838110156102fa5780820151818401526020810190506102df565b50505050905090810190601f1680156103275780820380516001836020036101000a031916815260200191505b50935050505060405180910390a150565b600260009054906101000a900473ffffffffffffffffffffffffffffffffffffffff1673ffffffffffffffffffffffffffffffffffffffff163373ffffffffffffffffffffffffffffffffffffffff16146103de576040517f08c379a00000000000000000000000000000000000000000000000000000000081526004018080602001828103825260278152602001806104ef6027913960400191505060405180910390fd5b7f082824443778e2832cc76b3cdf8ef4bc6ed7e78c1fc09acc0ff16114a9ba94bb816001836040518082805190602001908083835b602083106104365780518252602082019150602081019050602083039250610413565b6001836020036101000a0380198251168184511680821785525050505050509050019150509081526020016040518091039020546040518080602001838152602001828103825284818151815260200191508051906020019080838360005b838110156104b0578082015181840152602081019050610495565b50505050905090810190601f1680156104dd5780820380516001836020036101000a031916815260200191505b50935050505060405180910390a15056fe6f6e6c79206f776e65722063616e20706572666f726d2074686973207472616e73616374696f6ea265627a7a723158203a9f39a9221728d5047d225641df3edb78d71e10d093e18f3f92e35e7de0bff064736f6c634300050c0032",
  "source": "pragma solidity ^0.5.1;\r\n\r\n\r\ncontract Poll{\r\n    uint total_votes;\r\n    mapping(string=>uint) count;\r\n    address owner;\r\n\r\n\r\n    modifier onlyOwner{\r\n        require(msg.sender == owner,\"only owner can perform this transaction\");\r\n        _;\r\n    }\r\n    event voted(\r\n        string idea,\r\n        uint votes\r\n    );\r\n\r\n    event votecount(\r\n        string idea,\r\n        uint votes\r\n    );\r\n\r\n    constructor() public{\r\n        total_votes = 0;\r\n        owner = msg.sender;\r\n    }\r\n\r\n    function giveVote(string memory idea) public{\r\n        count[idea] += 1;\r\n        emit voted(idea,count[idea]);\r\n    }\r\n\r\n    function voteCount(string memory idea) public onlyOwner{\r\n        emit votecount(idea,count[idea]);\r\n    }\r\n\r\n\r\n}",
  "sourcePath": "E:/POLLING_APP/server/contracts/Poll.sol",
  "compiler": {
    "name": "solc",
    "version": "0.5.12+commit.7709ece9.Emscripten.clang"
  },
  "schemaVersion": "3.0.20",
  "updatedAt": "2020-02-03T09:43:30.121Z",
  "networkType": "ethereum",
  "devdoc": {
    "methods": {}
  },
  "userdoc": {
    "methods": {}
  }
}